{
  "contractName": "Counter",
  "abi": [
    {
      "anonymous": false,
      "inputs": [
        {
          "indexed": false,
          "internalType": "uint256",
          "name": "value",
          "type": "uint256"
        }
      ],
      "name": "Decrement",
      "type": "event"
    },
    {
      "anonymous": false,
      "inputs": [
        {
          "indexed": false,
          "internalType": "uint256",
          "name": "value",
          "type": "uint256"
        }
      ],
      "name": "Increment",
      "type": "event"
    },
    {
      "constant": true,
      "inputs": [],
      "name": "getCount",
      "outputs": [
        {
          "internalType": "uint256",
          "name": "",
          "type": "uint256"
        }
      ],
      "payable": false,
      "stateMutability": "view",
      "type": "function"
    },
    {
      "constant": false,
      "inputs": [],
      "name": "increment",
      "outputs": [],
      "payable": false,
      "stateMutability": "nonpayable",
      "type": "function"
    },
    {
      "constant": false,
      "inputs": [],
      "name": "decrement",
      "outputs": [],
      "payable": false,
      "stateMutability": "nonpayable",
      "type": "function"
    }
  ],
  "bytecode": "0x60806040526000805534801561001457600080fd5b5061014c806100246000396000f3fe608060405234801561001057600080fd5b50600436106100415760003560e01c80632baeceb714610046578063a87d942c14610050578063d09de08a1461006e575b600080fd5b61004e610078565b005b6100586100c3565b6040518082815260200191505060405180910390f35b6100766100cc565b005b600160008082825401925050819055507f32814a5bdfd1b8c3d76c49c54e043d6e8aa93d197a09e16599b567135503f7486000546040518082815260200191505060405180910390a1565b60008054905090565b600160008082825401925050819055507f51af157c2eee40f68107a47a49c32fbbeb0a3c9e5cd37aa56e88e6be92368a816000546040518082815260200191505060405180910390a156fea265627a7a72315820cf7cf21aaf113e48993db939d8301240f7d1d4bf2617036a59e298e8a47ddd5d64736f6c63430005100032",
  "source": "pragma solidity >=0.4.22 <0.9.0;\n\ncontract Counter {\n    uint count = 0;\n\n    event Increment(uint value);\n    event Decrement(uint value);\n\n    function getCount() view public returns(uint){\n        return count;\n    }\n\n    function increment() public{\n        count += 1;\n        emit Increment(count);\n    }\n\n    function decrement() public{\n        count += 1;\n        emit Decrement(count);\n    }\n}\n",
  "sourcePath": "/home/muzammilosman/Documents/codelearn/truffle-learn/contracts/Counter.sol",
  "compiler": {
    "name": "solc",
    "version": "0.5.16+commit.9c3226ce.Emscripten.clang"
  },
  "schemaVersion": "3.4.1",
  "updatedAt": "2021-06-07T17:29:38.056Z",
  "networkType": "ethereum",
  "devdoc": {
    "methods": {}
  },
  "userdoc": {
    "methods": {}
  }
}